:020000040800F2
:10400000FFFF0120695A01085DE200085FE2000835
:1040100081E3000899E30008B1E300080000000014
:1040200000000000000000000000000071210308F3
:10403000C9E3000800000000112203084DE2000857
:10404000E95A0108E95A0108E95A0108E95A010840
:10405000E95A0108E95A0108BDB90008DDB90008AC
:10406000FDB900081DBA000841BA000805CB0008D8
:10407000E95A010829CB0008E95A0108E95A010860
:10408000210A0108F5EE0008E95A0108E95A010879
:10409000E95A0108E95A0108E95A010869BA000811
:1040A000E95A0108E95A0108E95A0108E95A0108E0
:1040B000E95A0108E9B30008E95A0108F9CA0008F9
:1040C000EDCA0008E95A0108E95A0108E95A01084D
:1040D000E95A0108E95A010855EF00085DEB0008AC
:1040E00045BB0008E95A0108E95A0108E95A0108E4
:1040F000E95A01083DB70008E95A0108E95A0108E0
:10410000E95A0108E95A0108ADB20008E95A010864
:10411000E95A0108E95A0108E95A01080D5A01084B
:104120009D570008E95A0108E95A0108E95A0108AF
:10413000E95A0108E95A0108E95A0108E95A01084F
:10414000E95A0108E95A0108E95A010851E2000850
:1041500035570008E95A0108D9F50008D5F50008D7
:104160001DCB000811CB0008E95A0108E95A0108E3
:10417000E95A0108E95A0108E95A0108E95A01080F
:08418000E95A0108E95A01089F
:1041C00002780B78012A28BF9A4240F0D8806DE926
:1041D000044540EA0104CDE902676FF0000C4FEAA4
:1041E00044721AB380EA010414F0070F6BD100F097
:1041F000070420F0070004F0030521F007014FEA4F
:10420000C505F0E8042314F0040FF1E804670CFA84
:1042100005F462EA040266EA04060BD063EA0403CA
:10422000624667EA0407664604E000BFF0E804233C
:10423000F1E8046782FA4CF582EA0604A4FA8CF4E9
:104240006CBB83FA4CF583EA0705A5FA8CF595B9A2
:1042500050E9022351E9026782FA4CF582EA06042A
:10426000A4FA8CF483FA4CF583EA0705A5FA8CF5D9
:104270002543DBD09CB92DBAB5FA85F424F00704A8
:1042800027FA04F1DDE9026723FA04F303F0FF00E3
:1042900001F0FF01FDE80445A0EB0100704724BADE
:1042A000B4FA84F424F0070426FA04F1DDE9026785
:1042B00022FA04F202F0FF0001F0FF01FDE80445DC
:1042C000A0EB0100704714F0030F3CD110F0030481
:1042D00028D150F8082B51F8083B82FA4CF582EAB5
:1042E0000305A5FA8CF55DB950F8042C51F8043C8F
:1042F00082FA4CF582EA0305A5FA8CF5002DE8D088
:104300002DBAB5FA85F424F0070423FA04F122FA51
:1043100004F202F0FF0001F0FF01FDE80445A0EB0C
:10432000010070474FEAC40420F0030050F8082B46
:1043300021F0030151F8083B0CFA04F462EA04028C
:1043400063EA0403C9E710F003041DD0A1EB0401E4
:1043500020F00300E40750F8042B06D012D28B782B
:104360005FFAA2F4E41A06D12BB1CB785FFAB2F46B
:10437000E41A00D133B920465DF8104B7047A2EB28
:104380000300704701F1040150F8042BCC0721F021
:10439000030151F8043B48D824D222F07F4482FA2A
:1043A0004CF594EA1325A5FA8CF50AD165B951F8B4
:1043B000043B84EA0204B4EB036F0ED150F8042BE3
:1043C000EBE74FEA132355E035F07F454DD10878F0
:1043D000FDE80445C0F1000070474FEA126203F0A7
:1043E000FF0347E002EA1C4482FA4CF594EA1345C5
:1043F000A5FA8CF50AD165B951F8043B84EA0204A8
:10440000B4EB034F0CD150F8042BEBE74FEA134306
:1044100030E015EA1C4528D10B884FEA124229E00A
:104420004FEA124203EA1C4324E002F0FF0482FA3E
:104430004CF594EA1365A5FA8CF50AD165B951F8E3
:10444000043B84EA0204B4EB032F09D150F8042B97
:10445000EBE74FEA13630DE015F0FF0F05D10B6892
:104460004FEA122223F07F4304E04FF00000FDE802
:104470000445704712BA1BBA82FA4CF482EA03046C
:10448000A4FA8CF5B5FA85F402FA04F203FA04F3FF
:104490004FEA1260FDE80445A0EB1360704700BFCF
:1044A000844641EA000313F003036DD1403A41D33F
:1044B00051F8043B40F8043B51F8043B40F8043BFE
:1044C00051F8043B40F8043B51F8043B40F8043BEE
:1044D00051F8043B40F8043B51F8043B40F8043BDE
:1044E00051F8043B40F8043B51F8043B40F8043BCE
:1044F00051F8043B40F8043B51F8043B40F8043BBE
:1045000051F8043B40F8043B51F8043B40F8043BAD
:1045100051F8043B40F8043B51F8043B40F8043B9D
:1045200051F8043B40F8043B51F8043B40F8043B8D
:10453000403ABDD2303211D351F8043B40F8043B2D
:1045400051F8043B40F8043B51F8043B40F8043B6D
:1045500051F8043B40F8043B103AEDD20C3205D33D
:1045600051F8043B40F8043B043AF9D2043208D035
:10457000D2071CBF11F8013B00F8013B01D30B88A7
:1045800003806046704700BF082A13D38B078DD085
:1045900010F003038AD0C3F10403D21ADB071CBF57
:1045A00011F8013B00F8013B80D331F8023B20F8C1
:1045B000023B7BE7043AD9D3013A11F8013B00F8FA
:1045C000013BF9D20B7803704B7843708B78837082
:1045D000604670470000000000000000000000007E
:1045E00000000000000000000000000000000000CB
:1045F00000000000000000000000000000000000BB
:1046000030B490F800F020F007016FF0000C10F0CB
:10461000070491F820F040F048804FF000046FF05C
:104620000700D1E9002391F840F000F1080082FA78
:104630004CF2A4FA8CF283FA4CF3A2FA8CF34BBB43
:10464000D1E9022382FA4CF200F10800A4FA8CF2BC
:1046500083FA4CF3A2FA8CF3E3B9D1E9042382FA8A
:104660004CF200F10800A4FA8CF283FA4CF3A2FA9F
:104670008CF37BB9D1E9062301F1200182FA4CF2D7
:1046800000F10800A4FA8CF283FA4CF3A2FA8CF33E
:10469000002BC6D0002A04BF04301A4612BAB2FA60
:1046A00082F200EBD20030BC7047D1E9002304F065
:1046B0000305C4F100004FEAC50514F0040F91F89A
:1046C00040F00CFA05F562EA05021CBF63EA050337
:1046D00062464FF00004AAE781F0004102E000BF0B
:1046E00083F0004330B54FEA41044FEA430594EAB2
:1046F000050F08BF90EA020F1FBF54EA000C55EAED
:10470000020C7FEA645C7FEA655C00F0E2804FEABD
:104710005454D4EB5555B8BF6D420CDD2C4480EA9F
:10472000020281EA030382EA000083EA010180EACF
:10473000020281EA0303362D88BF30BD11F0004F1D
:104740004FEA01314FF4801C4CEA113102D0404253
:1047500061EB410113F0004F4FEA03334CEA13338E
:1047600002D0524263EB430394EA050F00F0A780A6
:10477000A4F10104D5F1200E0DDB02FA0EFC22FAA1
:1047800005F2801841F1000103FA0EF2801843FA95
:1047900005F359410EE0A5F120050EF1200E012A86
:1047A00003FA0EFC28BF4CF0020C43FA05F3C018C4
:1047B00051EBE37101F0004507D54FF0000EDCF13D
:1047C000000C7EEB00006EEB0101B1F5801F1BD3E6
:1047D000B1F5001F0CD349085FEA30004FEA3C0CEA
:1047E00004F101044FEA445212F5800F80F09A80E0
:1047F000BCF1004F08BF5FEA500C50F1000041EBE4
:10480000045141EA050130BD5FEA4C0C404141EBE7
:104810000101013C28BFB1F5801FE9D291F0000FE2
:1048200004BF01460020B1FA81F308BF2033A3F191
:104830000B03B3F120020CDA0C3208DD02F1140C88
:10484000C2F10C0201FA0CF021FA02F10CE002F1C3
:104850001402D8BFC2F1200C01FA02F120FA0CFCBC
:10486000DCBF41EA0C019040E41AA2BF01EB045105
:10487000294330BD6FEA04041F3C1CDA0C340EDC03
:1048800004F11404C4F1200220FA04F001FA02F346
:1048900040EA030021FA04F345EA030130BDC4F104
:1048A0000C04C4F1200220FA02F001FA04F340EAF9
:1048B0000300294630BD21FA04F0294630BD94F0AA
:1048C000000F83F4801306BF81F480110134013D91
:1048D0004EE77FEA645C18BF7FEA655C29D094EA02
:1048E000050F08BF90EA020F05D054EA000C04BF80
:1048F0001946104630BD91EA030F1EBF002100206B
:1049000030BD5FEA545C05D14000494128BF41F009
:10491000004130BD14F580043CBF01F5801130BD6D
:1049200001F0004545F0FE4141F470014FF00000F8
:1049300030BD7FEA645C1ABF194610467FEA655CA9
:104940001CBF0B46024650EA013406BF52EA03354B
:1049500091EA030F41F4002130BD00BF90F0000F39
:1049600004BF0021704730B54FF4806404F1320475
:104970004FF000054FF0000150E700BF90F0000F2E
:1049800004BF0021704730B54FF4806404F1320455
:1049900010F0004548BF40424FF000013EE700BF25
:1049A00042004FEAE2014FEA31014FEA02701FBFB5
:1049B00012F07F4393F07F4F81F06051704732F0E7
:1049C0007F4208BF704793F07F4F04BF41F400213E
:1049D000704730B54FF4607401F0004521F000419C
:1049E0001CE700BF50EA010208BF704730B54FF026
:1049F00000050AE050EA010208BF704730B511F027
:104A0000004502D5404261EB41014FF4806404F15E
:104A100032045FEA915C3FF4D8AE4FF003025FEAE4
:104A2000DC0C18BF03325FEADC0C18BF033202EB68
:104A3000DC02C2F1200300FA03FC20FA02F001FAC2
:104A400003FE40EA0E0021FA02F11444BDE600BF65
:104A500070B54FF0FF0C4CF4E06C1CEA11541DBF14
:104A60001CEA135594EA0C0F95EA0C0F00F0DEF8DF
:104A70002C4481EA030621EA4C5123EA4C5350EAC4
:104A8000013518BF52EA033541F4801143F4801315
:104A900038D0A0FB02CE4FF00005E1FB02E506F0A6
:104AA0000042E0FB03E54FF00006E1FB03569CF0FB
:104AB000000F18BF4EF0010EA4F1FF04B6F5007F01
:104AC00064F5407404D25FEA4E0E6D4146EB060673
:104AD00042EAC62141EA55514FEAC52040EA5E50FC
:104AE0004FEACE2EB4F1FD0C88BFBCF5E06F1ED8A6
:104AF000BEF1004F08BF5FEA500E50F1000041EBDD
:104B0000045170BD06F0004646EA010140EA020089
:104B100081EA0301B4EB5C04C2BFD4EB0C0541EAAB
:104B2000045170BD41F480114FF0000E013C00F3C0
:104B3000AB8014F1360FDEBF002001F0004170BDE4
:104B4000C4F10004203C35DA0C341BDC04F11404FD
:104B5000C4F1200500FA05F320FA04F001FA05F289
:104B600040EA020001F0004221F0004110EBD37056
:104B700021FA04F642EB06015EEA430E08BF20EA82
:104B8000D37070BDC4F10C04C4F1200500FA04F325
:104B900020FA05F001FA04F240EA020001F00041B7
:104BA00010EBD37041F100015EEA430E08BF20EA2A
:104BB000D37070BDC4F1200500FA05F24EEA020E72
:104BC00020FA04F301FA05F243EA020321FA04F0A1
:104BD00001F0004121FA04F220EA020000EBD37058
:104BE0005EEA430E08BF20EAD37070BD94F0000F58
:104BF0000FD101F00046400041EB010111F4801F8C
:104C000008BF013CF7D041EA060195F0000F18BF3C
:104C1000704703F00046520043EB030313F4801F78
:104C200008BF013DF7D043EA0603704794EA0C0F32
:104C30000CEA135518BF95EA0C0F0CD050EA410648
:104C400018BF52EA4306D1D181EA030101F00041C5
:104C50004FF0000070BD50EA410606BF10461946ED
:104C600052EA430619D094EA0C0F02D150EA0136F9
:104C700013D195EA0C0F05D152EA03361CBF10463A
:104C800019460AD181EA030101F0004141F0FE41D9
:104C900041F470014FF0000070BD41F0FE4141F45D
:104CA000780170BD70B54FF0FF0C4CF4E06C1CEA5D
:104CB00011541DBF1CEA135594EA0C0F95EA0C0F12
:104CC00000F0A7F8A4EB050481EA030E52EA0335CD
:104CD0004FEA013100F088804FEA03334FF08055EE
:104CE00045EA131343EA12634FEA022245EA11151B
:104CF00045EA10654FEA00260EF000419D4208BFCC
:104D0000964244F1FD0404F5407402D25B084FEA78
:104D10003202B61A65EB03055B084FEA32024FF424
:104D200080104FF4002CB6EB020E75EB030E22BF81
:104D3000B61A754640EA0C005B084FEA3202B6EB41
:104D4000020E75EB030E22BFB61A754640EA5C00F0
:104D50005B084FEA3202B6EB020E75EB030E22BF80
:104D6000B61A754640EA9C005B084FEA3202B6EB81
:104D7000020E75EB030E22BFB61A754640EADC0040
:104D800055EA060E18D04FEA051545EA16754FEAA2
:104D900006164FEAC30343EA52734FEAC2025FEAC0
:104DA0001C1CC0D111F4801F0BD141EA00014FF04F
:104DB00000004FF0004CB6E711F4801F04BF014320
:104DC0000020B4F1FD0C88BFBCF5E06F3FF6AFAE3C
:104DD000B5EB030C04BFB6EB020C5FEA500C50F1CC
:104DE000000041EB045170BD0EF0004E4EEA11314F
:104DF00014EB5C04C2BFD4EB0C0541EA045170BD56
:104E000041F480114FF0000E013C90E645EA060E99
:104E10008DE60CEA135594EA0C0F08BF95EA0C0FC7
:104E20003FF43BAF94EA0C0F0AD150EA01347FF40F
:104E300034AF95EA0C0F7FF425AF104619462CE7E6
:104E400095EA0C0F06D152EA03353FF4FDAE104649
:104E5000194622E750EA410618BF52EA43067FF49A
:104E6000C5AE50EA41047FF40DAF52EA43057FF42A
:104E7000EBAE12E74FF0FF3C06E000BF4FF0010C35
:104E800002E000BF4FF0010C4DF804CD4FEA410C99
:104E90007FEA6C5C4FEA430C18BF7FEA6C5C1BD066
:104EA00001B050EA410C0CBF52EA430C91EA030FE7
:104EB00002BF90EA020F0020704710F1000F91EA44
:104EC000030F58BF994208BF90422CBFD8176FEA12
:104ED000E37040F0010070474FEA410C7FEA6C5CE0
:104EE00002D150EA013C07D14FEA430C7FEA6C5CE7
:104EF000D6D152EA033CD3D05DF8040B704700BF13
:104F00008446104662468C461946634600E000BF60
:104F100001B5FFF7B7FF002848BF10F1000F01BD32
:104F20004DF808EDFFF7F4FF0CBF012000205DF8FD
:104F300008FB00BF4DF808EDFFF7EAFF34BF012082
:104F400000205DF808FB00BF4DF808EDFFF7E0FF1B
:104F500094BF012000205DF808FB00BF4DF808ED6C
:104F6000FFF7CEFF94BF012000205DF808FB00BFD3
:104F70004DF808EDFFF7C4FF34BF012000205DF8B5
:104F800008FB00BF4A0011D212F5001211D20DD554
:104F90006FF47873B3EB62520ED44FEAC12343F03F
:104FA000004343EA505323FA02F070474FF00000E9
:104FB000704750EA013002D14FF0FF3070474FF098
:104FC000000070474FEA4102B2F1E04324BFB3F55D
:104FD000001CDCF1FE5C0DD901F0004C4FEAC00270
:104FE0004CEA5070B2F1004F40EB830008BF20F054
:104FF0000100704711F0804F21D113F13872BCBF0E
:1050000001F00040704741F480114FEA5252C2F162
:105010001802C2F1200C10FA0CF320FA02F018BFAB
:1050200040F001004FEAC1234FEAD32303FA0CFCFE
:1050300040EA0C0023FA02F34FEA4303CCE77FEA8D
:10504000625307D150EA01331EBF4FF0FE4040F4D7
:105050004000704701F0004040F0FE4040F4000086
:10506000704700BF80F0004002E000BF81F00041C7
:1050700042001FBF5FEA410392EA030F7FEA226CFE
:105080007FEA236C6AD04FEA1262D2EB1363C1BF8E
:10509000D218414048404140B8BF5B42192B88BFFD
:1050A000704710F0004F40F4000020F07F4018BF20
:1050B000404211F0004F41F4000121F07F4118BF40
:1050C000494292EA030F3FD0A2F1010241FA03FCE8
:1050D00010EB0C00C3F1200301FA03F100F00043D0
:1050E00002D5494260EB4000B0F5000F13D3B0F198
:1050F000807F06D340084FEA310102F10102FE2A07
:1051000051D2B1F1004F40EBC25008BF20F0010076
:1051100040EA03007047490040EB0000013A28BF15
:10512000B0F5000FEDD2B0FA80FCACF1080CB2EB98
:105130000C0200FA0CF0AABF00EBC2505242184316
:10514000BCBFD0401843704792F0000F81F40001BB
:1051500006BF80F400000132013BB5E74FEA41038E
:105160007FEA226C18BF7FEA236C21D092EA030FFA
:1051700004D092F0000F08BF0846704790EA010F74
:105180001CBF0020704712F07F4F04D1400028BFA1
:1051900040F00040704712F100723CBF00F5000083
:1051A000704700F0004343F0FE4040F400007047B9
:1051B0007FEA226216BF08467FEA23630146420265
:1051C00006BF5FEA412390EA010F40F48000704778
:1051D0004FF0000304E000BF10F0004348BF40421E
:1051E0005FEA000C08BF704743F0964301464FF05A
:1051F00000001CE050EA010208BF70474FF00003B6
:105200000AE000BF50EA010208BF704711F00043F6
:1052100002D5404261EB41015FEA010C02BF8446C6
:105220000146002043F0B64308BFA3F18053A3F525
:105230000003BCFA8CF2083AA3EBC25310DB01FA6C
:1052400002FC634400FA02FCC2F12002BCF1004FF0
:1052500020FA02F243EB020008BF20F00100704781
:1052600002F1200201FA02FCC2F1200250EA4C00D5
:1052700021FA02F243EB020008BF20EADC7070471B
:1052800053B94AB9002908BF00281CBF4FF0FF31AD
:105290004FF0FF3000F00CB8ADF1080C6DE904CE12
:1052A00034F0F8F8DDF804E0DDE9022304B07047DB
:1052B000704700BF13B50C22C0B25043144B0121FC
:1052C0001C18185812F0EAFD684612F02FFC2389CA
:1052D000009340F203136068ADF804306946002380
:1052E0008DF8073012F0E0FB01230A48A17A1A4634
:1052F00012F0EBF9074812F027FA0648022112F0E3
:105300002BFA0028F9D0034812F023FA02B010BD9E
:1053100014980308002101407FB508284FF00102CE
:1053200002FA00F21BD00A281CD006280CBF4FF04E
:10533000407300230D4900930A600D4A0D48136025
:105340000023CDE90233ADF804300493694601230C
:105350008DF8143012F066F907B05DF804FB4FF0D9
:105360000073E7E74FF08073E4E700BF901E002072
:10537000941E00200021014000B58BB012F044F9CA
:1053800004A812F075F9684612F090F901214FF463
:10539000007012F0A7FD00236846CDE90033CDE987
:1053A000023312F06FF90C20FFF7B6FF034801211A
:1053B00012F082F90BB05DF804FB00BF0021014040
:1053C00038B5FFF777FFFFF7D9FA0022094BFFF74F
:1053D0003FFB094B044618680D46FFF7BFFA02462B
:1053E0000B4620462946FFF75DFCFFF7EBFD00EE7C
:1053F000100A38BD00000840901E0020F7B50C23AD
:10540000C6B27343134C0D46E718E058012112F061
:1054100045FD0023012DADF806303B8900930CBFFC
:10542000012300238DF8043004D0022D0ED1012376
:105430008DF8073001238DF805300C2303FB06445B
:105440006946606812F030FB03B0F0BD032DF1D166
:105450000223EDE714980308054BC0B20C2202FBAF
:1054600000330A1E5868198918BF012212F06EBB5A
:105470001498030808B5064B0C22C0B202FB003397
:105480001989586812F058FB431E5842584108BD0C
:105490001498030810B5044686B0104812F062FD57
:1054A0004FF482720023ADF808200C48ADF80630A6
:1054B0004FF400720DF10601ADF80A30ADF80C3072
:1054C000ADF80E30ADF81020ADF81430ADF8163050
:1054D000ADF8124012F0A2FD06B010BD0030014040
:1054E00070B5032292B0002101202DF0BFF9414B8D
:1054F00003221860002101202DF0B8F93E4B1860FE
:1055000001202DF0C0FA3D4B012118604FF480506E
:1055100012F0E8FC0121084612F0C0FC01214FF412
:10552000800012F0BBFC05221146354812F013FB37
:1055300033480522062112F00EFB314805220721CF
:1055400012F009FB2F4B2E48202201A9CDE901239F
:1055500012F0AAFA802301A929480193402612F0EB
:10556000A3FA01A92648019612F09EFA4FF480632F
:1055700000240993244B04934FF0C0654FF400338B
:10558000214622480D93CDE90E4410940B940C94BF
:1055900011940A940894079405940395069612F0C2
:1055A0009FF903A9194812F071F921461848069489
:1055B000039512F095F903A9154812F067F907232E
:1055C0008DF801308DF802404423012468468DF89F
:1055D00000308DF8034012F0EBFB382368468DF85D
:1055E000003012F0E5FB2820FFF754FF094B1C7038
:1055F00012B070BDAC1E0020A41E00209C1E002016
:1056000000000240020200020C30014088640240A7
:1056100010640240B11E002001F17043B3F5803FD9
:1056200070B504460E46154604D22B492B48E2229B
:1056300029F090F905F17043B3F5803F04D2264973
:105640002648E32229F086F9254B2648C3F89460C2
:105650000122C3F88C401021DD615C6112F082F9F7
:1056600001222148102112F07DF920491D4812F035
:1056700063F91F491C4812F05FF91A48012112F022
:105680002FF91948012112F02BF91A4801220221A1
:1056900012F0EFFC01221146164812F0EAFC154800
:1056A000012112F0DAFC144B4FF0FF3118682DF095
:1056B0005FFB01280ED1114B4FF0FF3118682DF020
:1056C00057FB431E5C425C410A48002112F0C5FCB6
:1056D000204670BD0024F7E7B0980308DCCB030830
:1056E000006402408864024010640240400F0020C1
:1056F0003D00801000300140AC1E0020A41E0020A0
:1057000010B5064B04464FF0FF3118682DF030FB02
:105710002046BDE81040FFF7BDBE00BF9C1E002024
:105720000348002300681A4619462DF0D7B800BF79
:105730009C1E002013B50024224614480194102119
:1057400012F010F91249114812F054F910490F489B
:1057500012F0F2F822460F48022112F08AFC0B48A0
:10576000214612F0BDF80C4B01A918682DF006FA7D
:10577000019B4BB14FF0E0234FF08052C3F8042D52
:10578000BFF34F8FBFF36F8F02B010BD886402402C
:105790000008002000300140AC1E002013B500249A
:1057A000224614480194102112F0DCF812491148E5
:1057B00012F020F910490F4812F0BEF822460F48A7
:1057C000012112F056FC0B48214612F089F80C4BCF
:1057D00001A918682DF0D2F9019B4BB14FF0E023DD
:1057E0004FF08052C3F8042DBFF34F8FBFF36F8F7C
:1057F00002B010BD106402402000001000300140D3
:10580000A41E002030B5024644680020844202DC19
:105810004FF0FF3030BD13681D5C8D42FAD0034459
:10582000851C5B785819F1E708B5064A0023137008
:10583000054A13700CF03AFEBDE8084002480CF02F
:105840007BBE00BF202000202120002010B503785F
:10585000EB2B044605D01549154829F00DFD002015
:1058600010BD072129F021FBE379C0B2834201D0AA
:105870001049F1E7237A0BB10F49EDE7617A04F1A2
:105880000800023129F011FB617A6318C2B29B7AD9
:10589000934204D00949064829F0EEFCDFE704F101
:1058A0000A03C4E91C310120DAE700BFCB980308E2
:1058B000B5CA0108FB9803083099030866990308E4
:1058C000F8B5054616461F46FFF79CFF041E10DB81
:1058D00029680B19013F5D78BD42A8BF3D460234DF
:1058E0002A4621443046FEF7DBFD00237355284647
:1058F000F8BD002333704FF0FF35F8E72DE9F04194
:10590000204B214D1B782878834209D91F4C7022E7
:10591000234600210CF056FE28B92B7801332B705A
:105920000020BDE8F08100232046E367FFF78EFFEB
:1059300095F8008008F10107FFB200B3144E1E2352
:1059400003FB08663246012104F17000FFF7B8FF3F
:105950000028D8BF0026C4F884600E4E0A2303FB3B
:1059600008663246022104F17000FFF7A9FF002803
:10597000D8BF0026C4F888602F702046D1E72F706A
:10598000CEE700BF2120002020200020941F00200F
:105990001B1F0020F31E0020F0B5404D2B68032B89
:1059A0008DB003D9002630460DB0F0BD0DF10D03CA
:1059B00000933B4802230022422106F0A5FC002868
:1059C000F0D00DF10F03002700933548CDF80F708C
:1059D0000C234FF4C8524321CDF81370CDF8177043
:1059E00006F092FC0028DDD02C682D4804F1440319
:1059F0008DF80C3003AB00934FF4C05201234321C8
:105A000006F00FFD2B689DF80C10254801332B6024
:105A10000DF11B0300933A46152306F075FC002890
:105A2000C0D0BDF81B204DF6BC439A42BAD11D4DE3
:105A30008C2303FB04561A463946304633F0EEFAFF
:105A4000194A9DF81F30737102EB04109DF8203045
:105A5000B37127010DF1220301460DF12E0C53F80D
:105A600004EB41F804EB6345F9D1B3F800C0A1F8A9
:105A700000C09B788B703A440023D3738C2303FBC4
:105A800004530A4ADA670A4A9DF80C101155224459
:105A9000C3F88400C3F8802085E700BF24200020DD
:105AA000900500206C2000202C200020BCF703086B
:105AB000282000201FB50DF10E0300930648022395
:105AC0000022412106F020FC10B10A202EF000F83F
:105AD000012005B05DF804FB90050020064A13780C
:105AE0004BB9064B06491960064B5B1A06499B10D9
:105AF0000B600123137070479C220020A422002019
:105B0000F466040840670408A022002008B5FFF7E7
:105B1000E5FF014B186808BDA022002070B50D46B6
:105B2000FFF7DCFF094B1A68094B0446196800238C
:105B30009A4201DC002070BD51F823000678A6428D
:105B400002D14678AE42F6D00133F1E7A022002020
:105B5000A42200202DE9F041FFF7C0FF0B4B1F6886
:105B60000B4BD3F8008006460024A74203DC002537
:105B70002846BDE8F08158F8245030466968FEF7A1
:105B80001FFB0028F4D00134EFE700BFA022002063
:105B9000A4220020F8B50F4A0F4B104D104E114FA4
:105BA00032609B1A9B102B600F4B01221A7000244D
:105BB0002B689C4200DBF8BD33680C4953F8243055
:105BC0000B481A68002A08BF3A4629F055FB0134F1
:105BD000EEE700BF4067040848670408A8220020D9
:105BE000AC220020F5B503089D220020FDB5030876
:105BF000B5CA010808B5044B1B780BB9FFF7CAFFFB
:105C0000024B186808BD00BF9D220020A82200207A
:105C100010B5084B1B7804460BB9FFF7BBFF064BCA
:105C20001B68A342C5BF054B1B68002053F8240026
:105C300010BD00BF9D220020A8220020AC22002021
:105C4000014B1868704700BFB4220020044B1B684A
:105C50008342C3BF034B8C2202FB003000207047FD
:105C6000B42200200000001008B50346407928B196
:105C70009979FFF753FF00B9054808BDD3F88400B0
:105C80000028F9D00378002BF6D0FFF763FFF2E786
:105C9000C8F70308826F044B9A4203D103490448B2
:105CA00029F0EABA704700BFC8F7030820B6030816
:105CB000B5CA01082DE9F84FDFF84C9199F800407A
:105CC0001CBBFFF797FFA046834625464FF08C0A82
:105CD000C3451CDC444E3560444D0027A846BA46F7
:105CE000BB46012331688F4238DB03B93360DFF8EC
:105CF0001C81DFF81CA1002733689F4253DB0CB1E5
:105D000000233360012389F80030BDE8F88F404656
:105D1000FFF77EFF074660B1436853B1984740B133
:105D2000324B0AFB0536BB689847014620B9032D64
:105D3000D0D808F10108CBE7032DCBD88C22304610
:105D4000FEF7AEFBF7673046FFF78EFF0135B06711
:105D50003046FFF79FFFEDB28C36E4E7D8F87810B5
:105D600089681BEA010107D0214A114204D0214968
:105D7000214829F081FA0023D8F87810C9681AEA76
:105D8000010F04D01D491C4829F076FA0023D8F8E9
:105D9000780081684BEA010BC16801374AEA010AC1
:105DA00008F18C089EE7ECB9AB6F1B7C1BB1144962
:105DB0000A788AB90B700024AA6F98F80010537CF7
:105DC0000B4388F80030937C9AF8002013438AF83C
:105DD000003001378C358FE79342ECD009490648F3
:105DE00029F04AFA0124E7E7B4220020000000105D
:105DF000F3E3FFFF4FB60308B5CA0108C8B60308AE
:105E0000B32200203FB70308B0220020B2220020B6
:105E1000B1220020014B1878704700BFB322002048
:105E2000014B1878704700BFB2220020014B187850
:105E3000704700BFB12200204FF0A0407047000023
:105E40004FF4883070470000014B1868704700BF5E
:105E50004C2D002041F6FF7070474FF48050704782
:105E600041F2F40070472DE9F0411E468368044674
:105E700090460F46984710F0010F14BF03250125E7
:105E8000820748BF45F020054307636848BF45F0D7
:105E900040050BB145F0040523680BB145F008053A
:105EA000237B45EA03153570236A626A003B18BFFD
:105EB00001230AB143F0020373706369C6F802302C
:105EC000A369C6F80630C6F80A801122394606F1E1
:105ED0000E0033F0C9F9E36993B13846FEF790FB41
:105EE00033183A229A73E46905462046FEF788FB88
:105EF0000F35024621467019BDE8F041FEF7D0BAD1
:105F0000BDE8F081032970B50446154603D803693E
:105F100003B15A5470BD0429FCD1EA0702D5036AC3
:105F200003B19847AB07F5D5636A002BF2D0BDE803
:105F3000704018472DE9F04704460E461746FFF714
:105F40007FFEB4F1805F054622D24FF000081AE0D0
:105F5000B4F5805F14D3A4F58059B5EB991F4FEACF
:105F600099100DDDFFF772FE836F17F8082019F006
:105F7000200F0CBF5869986909F01F01FFF7C2FF95
:105F800008F101080134B045E2D30120BDE8F087F3
:105F9000230F013B4500B5EB530F4FEA530801DCDB
:105FA0000020F3E7404603F00105FFF74FFE836F43
:105FB000D3E90523002D08BF1346002BF0D0D3F8FA
:105FC00000E0BEF1000FEBD004F17040A0EB487090
:105FD0003A463146A0EB0570F446BDE8F04760470D
:105FE00003461046CA18B2F5005F03D20A4699B2BA
:105FF00005F044BC0020704710B45418702C04D82D
:106000005DF8044B89B20CF03FBB00205DF8044BF7
:106010007047000018F03CB8B0F5805FF8B50D4649
:1060200011461BD2B0F5806F35D255FA80F3342B70
:10603000C2B230D8040A342318486343C61803F5A3
:106040006D73134400272A46184486F8E473FEF75C
:1060500027FA204623F0B2F80120F8BDA0F58050C1
:10606000B0F5806F17D255FA80F33D2BC2B212D82B
:10607000040A3D2309486343C61803F530731344EB
:1060800000272A46184486F8FC72FEF709FAE0B2A7
:1060900023F014F9E0E70020DFE700BF30CF002055
:1060A0002DE9F04F85B000AF05460C469046FFF74E
:1060B000C7FDB5F1805FF8605BD222460021404603
:1060C00032F0ACFF6DB93CB10323013C88F80030DD
:1060D000E4B24FF001093CB901201437BD46BDE8D8
:1060E000F08F4FF00009F6E7FA68C7F804D005EB27
:1060F000090A0AF1FF33B2EB931F4FEA9316EBDD67
:1061000090B03046C7F808D0FFF7A0FD83460021C5
:106110004022684632F082FFDBF87810486930B1DF
:10612000720749686B4602F18052FFF79CFEDBF86C
:106130007810886930B1BB684968721C20335207F7
:10614000FFF791FEB6010136AAEB0601C1F1400648
:10615000BB68A642A8BF26460B4408EB090032469E
:106160001946A41BFEF79CF9E4B2D7F804D0B14459
:10617000B1E7FB68280F01385B00B3EB500F4FEA23
:10618000500901DC0020A8E700F001064846FFF7AF
:106190005DFD836FD3E90523002E08BF1346002B56
:1061A000F0D05B68002BEDD005F17040A0EB49709A
:1061B00042462146A0EB067098478EE7F0B5B0F551
:1061C000805F85B004460E46154619D24FF48071A3
:1061D0002A4802F0B5FC2949013C0023B34202DB06
:1061E000012005B0F0BD671C06D0A04206DD0A5DA7
:1061F000EA543C460133F1E70246F9E70022F7E7AB
:10620000A0F58053B3F5805F18D24FF480711B481E
:1062100002F0B8FCA4F580541849013C0023B342B5
:10622000DEDA621C06D0A04206DD0A5DEA540134C3
:106230000133F4E70246F9E70022F7E710F0FF0127
:10624000A0F5005716D10D2E16D11022684632F057
:10625000E5FE6946C7F3072002F050FC019B2B6066
:10626000029B6B60039BAB60009B003B18BF01234C
:106270002B73B5E70020B4E70846B2E754260020A8
:1062800010B4084C0B46246811461A18A24204D8D0
:106290005DF8044B1A4604F0CBBD00205DF8044BBA
:1062A000704700BF4C2D002003461046CA18B2F5B7
:1062B000005F03D20A4699B205F0C8BA00207047C1
:1062C00010B45418702C04D85DF8044B89B20CF04B
:1062D00079B900205DF8044B7047000017F0EABE62
:1062E0000346B3F5805F10B510460C4612D2B3F5E5
:1062F000806F20D254FA83F2342AD9B21BD83422C8
:106300001B0A02FB03130D4922461944FEF7C8F885
:10631000012010BDA3F58053B3F5806F0BD254FA62
:1063200083F23D2AD9B206D83D221B0A02FB031391
:1063300003492246E9E70020EBE700BFE4D2002052
:10634000F0D1002001481AF007BD00BFECF70308A8
:1063500070B5FFF7DBFBFFF7ADFCFFF7F3FFFFF7CF
:106360006FFC124902460646114828F085FF0024BA
:10637000B44200DB70BD2046FFF768FC836FDA692A
:10638000054652B15A6852B10A490948234628F0D5
:1063900073FFAB6F2846DB6998470134E8E706498D
:1063A0000348224628F068FFF3E700BF7BB70308E5
:1063B000B5CA010898B70308CAB70308F8B5FFF7CC
:1063C0003FFC002406460127B44201DB3846F8BDF5
:1063D0002046FFF73BFC836F1B6A3BB19847224680
:1063E000054628B10549064828F046FF0134EBE789
:1063F0000449034828F040FF2F46F7E7EFB70308AA
:10640000B5CA01080EB8030870B5134D134E034604
:1064100004462A4603CAB24220606160154604F170
:106420000804F6D10E4D0F4E03F128042A4603CA84
:10643000B24220606160154604F10804F6D10A4CAE
:106440000A4D5033224603CAAA42186059601446C6
:1064500003F10803F6D170BD00000240280002409D
:1064600000040240280402400008024028080240BC
:1064700070B5114D0246034600F1280618685968A8
:106480002C4603C40833B3422546F7D10B4D02F125
:106490005006186859682C4603C40833B342254691
:1064A000F7D1074D7832186859682C4603C4083371
:1064B00093422546F7D170BD00000240000402401F
:1064C00000080240F8B50D4C05460127002634F8B7
:1064D000021C54F8060C11F02FFB854206D0084927
:1064E00008482B46224628F0C7FE002701360B2E0F
:1064F00004F10C04EBD13846F8BD00BF06000020C3
:106500002FB80308B5CA01082DE9F041A2B00EF07A
:1065100041FB01210446072011F0C0FC04A8374EBE
:10652000FFF772FF00253746A846BB8857F80C0BCB
:1065300002A90135CDE9023811F0B6FA0B2DF4D1DC
:1065400000254FF001082F4674B3B38830680293DA
:1065500002A9ADF80C808DF80E7011F0A5FAB18883
:10656000306811F0EFFA0197019BB3F57A7F3DDBBC
:106570000120FFF7A7FFB1880446306811F0E4FA64
:106580000197019BB3F57A7F34DB0020FFF79AFF78
:106590000135044002A956F80C0B8DF80C7011F06F
:1065A00083FA0B2DE4B2CFD104A8FFF761FFCCB181
:1065B00001231348ADF80C308026002302A98DF882
:1065C0000E304025029611F06FFA0D48029502A98F
:1065D00011F06AFA0A48314611F0B6FA084829461D
:1065E00011F0B2FA204622B0BDE8F081019B0133E0
:1065F0000193B9E7019B01330193C2E7000000203A
:10660000000402402DE9F04FA5B00EF0C3FA0121BD
:106610000446072011F042FC06A86E4EFFF7F4FE78
:1066200037460B254FF00008BB8857F80C0B04A920
:10663000CDE9043811F038FA013DF5D1654F4FF03E
:106640000B084FF0010A002C4ED0BB883868049329
:1066500004A9ADF814A08DF8165011F025FAB988E8
:10666000386811F06FFA0395039BB3F57A7F69DB05
:106670003346A1464FF0000B18460121019300F06C
:10668000D9F90BF1010B019B00EA0900BBF10B0FDB
:106690005FFA80F903F10C03EED1B988386811F084
:1066A00053FA0395039BB3F57A7F4FDB33464FF0E4
:1066B000000B18460021019300F0BCF90BF1010B0F
:1066C000019B2040BBF10B0FC4B203F10C03F0D1CE
:1066D00057F80C0B8DF8145004A911F0E5F9B8F136
:1066E000010809EA0404AED13B4E082537464FF0B5
:1066F0000008BB8857F80C0B04A9CDE9043811F049
:10670000D3F9013DF5D1039542F20F72039B9342F9
:1067100020DD314F00254CB13846012100F08AF9C7
:106720000135042D044607F10C07F4D10425012797
:106730004FF0000842F20F7984B90024204625B0BA
:10674000BDE8F08F039B013303938DE7039B013377
:106750000393A7E7039B01330393D7E7B38E306B13
:1067600004A9CDE9043711F09FF9B18E306B11F017
:10677000E9F9CDF80C80039B4B4526DD304600211E
:1067800000F058F90135082D044606F10C06D3D166
:106790000028D2D001238026ADF8143004A90023AC
:1067A0000E488DF816304025049611F07DF904A9A5
:1067B0000A48049511F078F93146084811F0C4F9F7
:1067C0000648294611F0C0F9B8E7039B013303934B
:1067D000D1E700BF840000204401002000040240F3
:1067E0002DE9F047A2B00EF0D5F9012106460720A9
:1067F00011F054FB04A82D4FFFF706FE3D46072479
:106800004FF00008AB8855F80C0B02A9CDE902380F
:1068100011F04AF9013CF5D16EB34FF007084FF083
:1068200001093D68B7F804A0CDF808A002A92846E0
:10683000ADF80C908DF80E4011F036F9514628460F
:1068400011F080F90194019BB3F57A7F24DB514666
:10685000284611F079F90194019BB3F57A7F1FDB8B
:1068600002A928468DF80C4011F01EF9B8F1010874
:1068700007F10C07D5D104A8FFF7FAFD46B10C4B80
:106880001B782BB10B4B1B68DB696BB10020984761
:10689000304622B0BDE8F087019B01330193D2E777
:1068A000019B01330193D7E71E46F1E76CF803081B
:1068B000B21E0020B822002010B5094C23783BB945
:1068C0000848FFF747F9084B186010B101232370FF
:1068D00010BDBDE810400549054828F0CDBC00BFFB
:1068E000B21E0020F39E0308B822002048B8030817
:1068F000B5CA0108F8B50D4C05460127002634F845
:10690000021C54F8060C11F017F9854206D008490C
:1069100008482B46224628F0AFFC00270136052EFA
:1069200004F10C04EBD13846F8BD00BF0E01002085
:106930002FB80308B5CA01082DE9F041A2B00EF046
:1069400029F901210446072011F0A8FA04A8374EBE
:10695000FFF75AFD00253746A846BB8857F80C0BB1
:1069600002A90135CDE9023811F09EF8052DF4D1C8
:1069700000254FF001082F4674B3B38830680293A6
:1069800002A9ADF80C808DF80E7011F08DF8B18869
:10699000306811F0D7F80197019BB3F57A7F3DDBA2
:1069A0000120FFF7A7FFB1880446306811F0CCF84A
:1069B0000197019BB3F57A7F34DB0020FFF79AFF44
:1069C0000135044002A956F80C0B8DF80C7011F03B
:1069D0006BF8052DE4B2CFD104A8FFF749FDCCB187
:1069E00001231348ADF80C308026002302A98DF84E
:1069F0000E304025029611F057F80D48029502A975
:106A000011F052F80A48314611F09EF8084829461C
:106A100011F09AF8204622B0BDE8F081019B0133C5
:106A20000193B9E7019B01330193C2E708010020FC
:106A30000004024038B50D4604468188006811F014
:106A40007BF8854207D0054905482B46A21D28F052
:106A500013FC002038BD0120FCE700BF64B8030828
:106A6000B5CA0108014B1878704700BFB31E00205B
:106A700080B5274E274DDFF8A480274FDFF8A0A070
:106A8000DFF8A090002392B033702B7098F800309C
:106A90003B7001244FF47A702DF01AF898F800300A
:106AA0003A789A420DD003220DF106008DF8083095
:106AB0008DF806208DF807400EF012FB98F8003094
:106AC0003B709AF8003032789A420CD00DF10600F3
:106AD0008DF808308DF806408DF807400EF000FB69
:106AE0009AF80030337099F9003095F900209A42F5
:106AF000D0D007220DF106008DF808308DF8062061
:106B00008DF807400EF0ECFA99F800302B70C1E7D1
:106B1000BE220020BD220020BC220020BF22002077
:106B2000A5010020A401002037B5074C237843B904
:106B30000125064906480193009596222CF0DAFCBF
:106B4000257003B030BD00BFB31E002082B803081B
:106B5000716A00082DE9F3411FF0A2F82A4E2B4D6F
:106B60002B4F307800284AD02A4A2B4C00210B4664
:106B7000964612F8018B14F801CB0133E0451CBF97
:106B800002F801CC0146042BF3D131B12348CDF8F2
:106B900000E000222E2105F0D9FB3B78012B2ED9F5
:106BA0001F4B204C1B7822789A420DD02370012372
:106BB0001A461A4800942E2105F0C8FB1A4B227879
:106BC0001A481A7018F0FAFD2B7823B94FF47A702E
:106BD0002CF07EFFC5E7DFF85C802CF013FED8F8C0
:106BE0000030984204460AD9114B00930B48012308
:106BF00002222E21643405F044FBC8F800402B78B3
:106C0000002BE3D00A20E3E7D6220020D522002083
:106C1000CD220020AC010020A8010020900500201A
:106C2000A6010020A7010020CE220020486704080A
:106C3000D4220020D022002010B5104B1878A0B12B
:106C40000F491048104CFDF7BBFA78B901232370A7
:106C500023780E4C002B14BF01230023237003D193
:106C60000B490C4828F008FB207810BD04490A485D
:106C7000FDF7A6FA0028EBD10223E8E7B41E0020B6
:106C8000C02200208CB80308CD220020D62200208C
:106C9000A4B80308B5CA010898B8030873B5124E22
:106CA0003478F4B9114D124912480194032300932A
:106CB000962223462CF01EFC0D222146284632F057
:106CC000ADF90C2310222E210B48009505F0D9FABE
:106CD0000A4B0B4918702A460A4828F0CDFA0123BE
:106CE000337002B070BD00BFB41E0020C02200206F
:106CF000C9B80308556B000890050020CF2200207A
:106D0000DBB80308B5CA0108034A044B10781B78A6
:106D100040EA8300C0B27047B51E0020DC2200208C
:106D2000044B1878044B1B78022B08BF40F004007A
:106D3000704700BFB51E002041240020012070478D
:106D4000012210B502211046084B27F063FC074AC8
:106D50001023104601241372D48027F0DDF864203C
:106D60002CF0B6FE024B1C7010BD00BF402300206B
:106D7000DC220020F8B5194F01253D7027F04CFBAF
:106D80004FF4E13007F01EFF154B1C7829462046D2
:106D9000FEF734FB00212046FEF75EFB114B1E7808
:106DA00029463046FEF72AFB00213046FEF754FB09
:106DB0000A202CF08DFE29462046FEF74DFB0221CD
:106DC0002046FEF71BFB64202CF082FE002130469B
:106DD000FEF714FB02233B70F8BD00BF41240020E6
:106DE0000C9803080F98030870B5194D2E786EBBE8
:106DF000184B01211878FEF701FB174B0121187879
:106E0000FEF7FCFA2BF012F8144B1860144B1C78A8
:106E100001212046FEF7F2FA31462046FEF71CFB20
:106E200027F0ACFA27F0E0F827F024F827F010FC60
:106E300001212046FEF710FB02212046FEF7DEFA74
:106E40000849094828F018FA01232B7070BD00BFCB
:106E5000B51E00200E9803080D9803084424002056
:106E60000C980308F6B80308B5CA010810B50A491A
:106E7000044602460948FDF713FB094841F28831F0
:106E8000C48027F05DF830B9BDE8104005490648D8
:106E9000882227F05FBD10BD00230020482300207A
:106EA0004023002013B9030834B903082DE9F34146
:106EB0003F4C1E46054623468846174604210F22AE
:106EC000012027F0A7FB33691E68D5B9022323727E
:106ED0000423E37241F28831092320466572A572CA
:106EE0002573C4F80D60E38027F02AF820B93149F2
:106EF0003148812227F02EFD30493148402228F0C8
:106F0000C8F92F4D42463946284628F0CCF9EB689F
:106F10009E4204D227492B48AF2227F01BFD284868
:106F200028F0C9F900283FD1254828F0E7F9EB6996
:106F30009E4235D1224828F0E6F908B1FFF796FFC6
:106F4000EA68EB699A4204D01A491F48BB2227F02D
:106F500001FD002304226372A3722373144822727A
:106F6000092341F28831E272C4F80D60E38026F013
:106F7000E7FF20B90F491048922227F0EBFC41F2BD
:106F800088331248009301220023006811462AF03A
:106F90005BFFC30704D407490D489C2227F0DAFCA5
:106FA000012002B0BDE8F0814020FFF75FFFB6E7A7
:106FB0004023002013B9030834B90308002300203C
:106FC000E02200203CB9030869B9030844240020EA
:106FD000B5B90308024B012118682AF0DFBF00BFD2
:106FE00044240020002007F05DBA10B5044680203C
:106FF00007F058FAA0B2BDE8104007F061BA0000EF
:1070000010B5054C237833B907F0E0F903480AF0CE
:10701000EBFF0123237010BDB61E0020B00100203D
:107020002DE9F04F2DED048B8DB01EF039FE0EF0E2
:10703000D1FC404FDFED408A064688460A202CF0FE
:1070400047FD3E4B3B49187807F09AFCB7F90450CE
:107050006D422DB285EAE573A3EBE5739BB2632B1A
:1070600063D8B7F90240644223B21A4609EE103AD7
:1070700083EAE373A3EBE2739BB2632B55D8304BE7
:107080001B78002B48D07B899FED2E7A9FED2E8AAE
:1070900007EE903AF8EE677AA7EE878AB4EEE88AB0
:1070A000F1EE10FA3CD4F0EE487A284BC3ED007AAA
:1070B0000EF090FC81460C460EF08CFC244A1278AF
:1070C00083468A462ABB3A78B02A22D107EE905AE4
:1070D000F8EEE77AB9EB0600CDED027AF8EEC97A60
:1070E0004FF0060264EB0801CDED037A8DF8002025
:1070F0008DED048A8DED058AFEF77CF89FED157AFB
:1071000006EE900AC6EE877A6846CDED067A26F03E
:1071100007FD5E46D04691E70F4B93ED008AC2E72C
:10712000F0EE687AB0EE688ABFE70C4A1378013354
:10713000137083E74A240020CDCCCC3D0D98030882
:1071400048240020B84B513AB6F3DD3EBC01002084
:107150004924002000247449B8010020582400204C
:1071600010B5084B1C7834B10748FEF7F3FCBDE8B6
:107170001040036A18470549054828F07DF8204665
:1071800010BD00BF56240020D39E0308C2B90308D7
:10719000B5CA010837B50F4D2B78CBB90E4B1C780B
:1071A000B4B90E48FEF7D6FCC369204698470C4B8D
:1071B000187807F0F7F958B10323009309490A48F2
:1071C000019423464FF496722CF094F901232B700E
:1071D00003B030BD5724002056240020C99E030868
:1071E0000D980308EFB903082170000837B50F4B5D
:1071F0001B78CBB90E4D2C78B4B90E48FEF7AAFC1B
:10720000C369204698470C4B187807F0CBF958B162
:107210000323009309490A48019423464FF49672C8
:107220002CF068F901232B7003B030BD57240020E7
:1072300056240020D39E03080D980308EFB90308D5
:107240002170000810B5084B1C7834B10748FEF7D0
:1072500081FCBDE81040036A18470549054828F03D
:107260000BF8204610BD00BF57240020C99E03081C
:10727000C2B90308B5CA0108182070472C2070470E
:1072800070B571B1124A034600F1240114781C70E4
:1072900054785C7094789C7003338B4202F1030243
:1072A000F4D1047841788278034600F12105DE7834
:1072B0001E701E795E705E799E700333AB42F6D10C
:1072C00080F8214080F8221080F8232070BD00BF94
:1072D000ADFA030830B5214B09B100221A6093EDD5
:1072E000007A1F4D1F4C2049F7EE007AB4EEE77A82
:1072F000F1EE10FA44BFDFED1D7A77EE277A00F148
:107300002402C3ED007A2B7807EE103AB8EEC77A64
:10731000033027EE277ABCEEC77A17EE103A00F852
:10732000033C237807EE103AB8EEC77A27EE277AA7
:10733000BCEEC77A17EE103A00F8023C0B7807EE65
:10734000103AB8EEC77A27EE277ABCEEC77A17EE66
:10735000103A00F8013C8242D5D130BDE42400202F
:10736000420200204102002040020020CDCC4C3DD2
:10737000F0B500F1240439B1034600221A705A70A6
:107380009A7003339C42F9D1124940F20F26172517
:1073900040F2031C21270B784A784FEAD30EDB001A
:1073A00003F0380343EA521302F01F021EFB065E8D
:1073B00013FB0C7312FB06524FEAAE1E9B11921187
:1073C00080F800E0437082700330844201F10201D2
:1073D000E1D1F0BDB8250020F0B51A4B85B00DF114
:1073E000060219681B791371174BCDF806101C683B
:1073F000CDF80B400DF10B011B790B710024FF2719
:10740000264612F8013B03EB4303C5180134052C53
:10741000C7546E70AE70F4D100252B46FF2411F8CE
:10742000012B02EB420286180135052D835474703E
:10743000B370F4D10470447084708374C3740375A2
:1074400005B0F0BDF4B90308FAB9030870B571B11D
:10745000124A034600F1240114781C7054785C70C1
:1074600094789C7003338B4202F10302F4D10478C8
:1074700041788278034600F12105DE781E701E797E
:107480005E705E799E700333AB42F6D180F8214086
:1074900080F8221080F8232070BD00BF65FA030831
:1074A00070B599B10C2216491546B2FBF5F305FBF0
:1074B000132303EB43030E78C654C4184B78637050
:1074C0008B78A370013A01F10301EED190F82140CD
:1074D00090F8221090F823200346A0F121059E7F0A
:1074E00083F82160DE7F83F8226093F8206083F8C0
:1074F0002360033BAB42F2D104704170827070BDD7
:1075000089FA030838B505460C4611B1164B00221E
:107510001A6021461548FFF7B3FE21461448FFF7CD
:10752000BFFF12492B4605F1240402780D7852085A
:1075300002EB55021A7042784D78520802EB550260
:107540005A7082788D78520802EB55029A70033394
:10755000A34201F1030100F10300E6D1024A1368DE
:107560000133136038BD00BFE0240020BC2400209C
:107570009824002070B5234B09B100221A6093EDC6
:10758000007A214C214DF7EE007AB4EEE77AF1EE65
:1075900010FA44BFDFED1E7A77EE277AC3ED007A4A
:1075A000237803EB43016A186E5C5578917800F1FB
:1075B000240206704570817003309042F9D1154D58
:1075C0001548297802780131C9B20132D2B20429B2
:1075D0002970027009D90021013329700321B3FBFE
:1075E000F1F101EB41015B1A23700C2A09D90B4A16
:1075F000002303701378B3FA83F35B091370084A0E
:10760000137070BDE82400205B2500205CFA03089D
:10761000CDCC4C3D5A25002059250020582500206E
:107620008025002030B500F1240239B10346002145
:1076300019705970997003339342F9D10E4C236835
:10764000092B4FF000010BDCDD0709D5FF25017088
:107650004170857003309042F9D10133236030BD11
:1076600001704170817003309042F9D10133142BC5
:10767000A8BF0023F2E700BFEC2400200D490E480C
:107680000A88B0F900301A4492B2B2F57A6F0A80D3
:1076900007D95B4203804FF47A630B8008880AF0B5
:1076A0009BBCB2F5FA6FF9D25B4203804FF4FA63E8
:1076B000F3E700BF860C0020840C00202DE9F04386
:1076C000674B684D1B682A68674C6849684E93424F
:1076D000684A4FD0DFF8A48194ED007AD8ED007AA3
:1076E000DFF89CE191ED006ADFF898C1624FDFF8A6
:1076F0009C912B60C7EE276AD9F80090C8F80090DB
:10770000C3F30748C4F80090F7EE007A77EEE67A04
:107710009EED007A27EE877AA6EE267A92ED006A31
:1077200081ED007A9CED007A27EE877AA6EE267A24
:1077300082ED007A97ED007A67EE877A96ED007A0F
:10774000E7EE267AC6ED007A07EE908AF8EEE77A41
:10775000CEED007AC3F3072E07EE90EAF8EEE77A53
:10776000CCED007A5FFA83FC07EE90CAF8EEE77A78
:10777000C7ED007AD4ED007AF5EEC07AF1EE10FA9A
:1077800000F124053FDD3D4B91ED006A93ED007A59
:107790003B4BC7EE876AF7EE007A77EEE67A93ED19
:1077A000007A384B27EE877AA6EE267A92ED006AA9
:1077B000BDEEC77A17EE101A93ED007A2E4B27EE26
:1077C000877AA6EE267ABDEEC77A17EE102A93EDD9
:1077D000007A67EE877A96ED007AE7EE267AFDEE7C
:1077E000E77A17EE903A0170427083700330A84236
:1077F000F9D1D4ED007A9FED247A77EEC77AC4ED03
:10780000007ABDE8F08300272760C3F3074406EE43
:10781000904AF8EEE66AC1ED006AC3F30721DBB2D5
:1078200007EE101A07EE903AB8EEC77AF8EEE77A4C
:1078300082ED007AFCEEE66ABCEEC77AC6ED007A0D
:10784000FCEEE77A16EE901A17EE102A17EE903A31
:107850000170427083700330A842F9D1D1E700BFB4
:1078600054250020D801002030020020D001002043
:10787000C8010020CC010020FC240020D4010020FD
:107880000425002000250020CDCC4C3D34020020F2
:1078900037B5044628F053FF06EE900A9FED1C6AA8
:1078A000DFED1C7AF8EEE66A2046E6EE867A2434AE
:1078B0000025BCEEE77A8DED017A9FED177A9DF8F1
:1078C0000420A6EEC67AFCEEC76A16EE903ADFED0B
:1078D000136AB4EEE67AF1EE10FAC8BF4FF0FF3348
:1078E000DBB2F4EEE67AF1EE10FA0EDCF5EEC07AD9
:1078F000F1EE10FA4CBF0021114601704370857003
:107900000330A042EDD103B030BDFF21F5E700BF49
:10791000C9C8C8BE0000C8420000000000007F4384
:10792000F8B5254E254F33680133054609D1244962
:10793000244818F0BBFD24493060244818F0B6FDF7
:1079400038602BF05FFF04463088214E19F0BCF9F7
:10795000241AA3B21E2B28BF1E2338881C4619F0F8
:1079600033F940B21B4B032804BF01221A7093F86D
:1079700000C0326823B203EB4303DCB2C3F16403FB
:10798000DBB205F124074FF0000EBCF1000F01D06F
:10799000092A0EDD214618462970687085F802E034
:1079A0000335BD42F1D10132142AA8BF0022326052
:1079B000F8BD00210846EFE7E0010020DC010020CF
:1079C00066A2030870A2030899B50308F69E03088F
:1079D000082500200C250020F7B521490446214840
:1079E00018F064FD19F070F91F4905461D4818F09C
:1079F0005DFD19F041F9DFED1D7A9FED1D7A30EE46
:107A0000670ADFED1C7AE0EE077A9FED1B7AF4EE51
:107A1000C77AF1EE10FA1BDCF5EEC07AF1EE10FA3F
:107A200018D4FCEEE77ACDED017A9DF80420D0431E
:107A3000234604F12407C0B275B10146164600245E
:107A400019705E709C7003339F42F5D103B0F0BD96
:107A5000FF22ECE70022EAE764210E460C46EFE73E
:107A60009B9F0308BC9F0308969F03080000AA423F
:107A70003333A3C00000000000007F4337B52F4917
:107A800004462F4818F012FD19F0F6F82D4A2E4939
:107A90009FED2E6ADFED2E7ADFED2E5A204600256F
:107AA000243492ED007AD1ED006A76EEC76A30EEAA
:107AB000477A86EE265AF0EE676AE5EE076AF4EE3C
:107AC000E76AF1EE10FA30DCF5EEC06AF1EE10FA7A
:107AD0002DD4BCEEE67A8DED017A9DF8043003706A
:107AE000457092ED007AD1ED006A76EEC76A30EE0D
:107AF000477A87EEA65AF0EE656AE5EE076AF4EE7D
:107B0000E76AF1EE10FA14DCF5EEC06AF1EE10FA55
:107B100011D4BCEEE67A8DED017A9DF804308370C5
:107B200003308442BDD103B030BDFF23D7E700232B
:107B3000D5E7FF23F3E70023F1E700BF559F0308D4
:107B4000F69E03083C0200203802002000007FC39C
:107B500000007F4300000000F8B53F4E3F4D404F0E
:107B60000446306800280FDA3E493F4818F09EFC72
:107B70003E4930603C4818F099FC3D4928603A483D
:107B800018F094FC3860F8BD80B219F075F8FDEE7D
:107B9000C07A288817EE906A19F06EF8FDEEC07A68
:107BA000388817EE905A19F067F8324B9E423246E9
:107BB000B8BF1A46B2F5007FFDEEC07AA8BF4FF4F9
:107BC00000729D4217EE901A2F46B8BF1F46B7F5B8
:107BD000007FA8BF4FF400778B42B8BF0B46B3F5C8
:107BE000007F1846A8BF4FF40070002EB4BF4FF0BE
:107BF000FF330123002D02FB03F3B4BF4FF0FF322C
:107C00000122002907FB02F2B4BF4FF0FF3101212E
:107C1000092B00FB01F1CCBF5B100023092ACCBF6C
:107C2000521000220929CCBF49100021FF29A8BF0A
:107C3000FF21FF2AA8BFFF22FF2B2046A8BFFF235A
:107C4000243401704270837003308442F9D10A4AAF
:107C500013780133137096E7C401002094240020A8
:107C6000902400205BCB03081EA00308C9A80308CA
:107C7000C3B1030800FEFFFF8C240020F0B52DEDFA
:107C8000028B044683B049B1034600F1240100226F
:107C90001A705A709A7003338B42F9D16B4F6C4E45
:107CA0003B686C4D002B12DA6B496C4818F0FEFBF8
:107CB0006B493060694818F0F9FB6A4928606748E9
:107CC00018F0F4FB386003B0BDEC028BF0BD3088D7
:107CD00018F0D2FF2888B0EE408A18F0CDFFFBEEF6
:107CE000046AB4EEE68AF1EE10FAB0EE407AB3EE32
:107CF000040A00F1A180B4EEC08AF1EE10FAB4EEED
:107D0000E67AD4BFF1EE487AF0EE667AF1EE10FA38
:107D10000ED4B4EEC07AF1EE10FA0CDCB1EE470AE4
:107D2000F5EEC07AF1EE10FA08DBB7EE007A07E064
:107D3000B3EE040AF4E7BBEE040AF1E7BFEE007A03
:107D400027EE277AB5EEC00A67EE277AB2EE046A0C
:107D5000F1EE10FA77EE865ADFED436AACBFB7EE6C
:107D6000007ABFEE007A27EE007AF4EEE65AF1EEE2
:107D700010FA27EE007A4FDCF5EEC05AF1EE10FA59
:107D80004CD4FCEEE55ACDED015A9DF8043084F850
:107D9000213076EE475A2370F4EEE65AF1EE10FAEF
:107DA000E3703DDCF5EEC05AF1EE10FA3AD4FCEE89
:107DB000E55ACDED015A9DF80430237276EE677ACC
:107DC000E372F4EEE67AF1EE10FAA3732CDCF5EE32
:107DD000C07AF1EE10FA29D4FCEEE77ACDED017A03
:107DE0009DF80430E37377EE067AA374F4EEE67A36
:107DF000F1EE10FA63751BDCF5EEC07AF1EE10FAC5
:107E000018D4FCEEE77ACDED017A9DF80430A37624
:107E1000637784F8203056E7FF23B8E70023B6E7FE
:107E2000FF23CAE70023C8E7FF23DBE70023D9E7E6
:107E3000FF23ECE70023EAE7B4EEE67AF1EE10FA6E
:107E4000F0EE407A3FF571AF63E700BFC00100205C
:107E500088240020842400202BAF030808A60308F0
:107E600021AF0308E7AB030800007F43F8B52DED11
:107E7000028B414F414E3B78414D04465BB941492D
:107E8000414818F013FB414930603F4818F00EFBA1
:107E9000012328603B70308818F0EEFE2888F0EE51
:107EA000408A18F0E9FEB5EE400AF1EE10FAB0EEA5
:107EB000408A5DD088EE880A2EF068FDDFED347AC6
:107EC000B5EEC08AF1EE10FA70EE277A03D59FED79
:107ED000317A77EE877A28EE088AF2EE085AA8EE11
:107EE000A88A2046002267EEA57A9FED2B7A87EEBE
:107EF000875AB1EEC87ADFED297AB4EEE77AF1EE6F
:107F000010FAD4BFBDEEC77A9FED257AB8EEC77AD6
:107F1000F0EE047A87EE276AF1EE084AB1EE466A7F
:107F200007EE902AF8EEE76AF0EE477A75EE666A99
:107F30000132F0EEE66AF4EEE46AF1EE10FAC8BF40
:107F400075EEE66A0C2AE6EE867A00F10300FDEE95
:107F5000E77A17EE903A83F30803DBB200F8033CAC
:107F600000F8023C00F8013CDAD1BDEC028BF8BD10
:107F7000DFED0C7AAFE700BFF8240020F4240020E6
:107F8000F02400202BAF030808A6030821AF030844
:107F9000DB0FC93FDB0F4940DB0FC94000007F43C7
:107FA000FF00000000000000002110B50B481EF08B
:107FB0003BF90B4B0B481B78102163B10FF0C2FD4E
:107FC000094C237833B1012323722BF01BFC0023CF
:107FD0006060237010BD0FF0B7FDF1E71581000858
:107FE00080250020000402401025002008B50B4623
:107FF00011461A18282A06D81A46044B1844FCF7CA
:108000004FFA012008BD0020FCE700BF90250020AA
:1080100008B503461046CA18282A06D80A46044955
:108020001944FCF73DFA012008BD0020FCE700BF21
:108030009025002008B50B4611461A18182A06D8B4
:108040001A46044B1844FCF72BFA012008BD002007
:10805000FCE700BFB825002008B503461046CA1843
:10806000182A08D80A4605491944FCF719FA0038B5
:1080700018BF012008BD0020FCE700BFB825002084
:1080800041B100F124020023037043708370033078
:108090009042F9D1704700007FB5174E35784DBB3F
:1080A00008F060FB154B1648ADF80E5012221A600E
:1080B0000124102302A902938DF80C400FF0F4FC68
:1080C000104818F049FE104818F046FE0F4B347067
:1080D0002246322100930E482B462CF027FC064600
:1080E0002BF090FB64230246009321462B4630463A
:1080F0002CF08EFC04B070BDB71E0020842500203B
:1081000000040240E4FA0308D4FA0308A97F000837
:1081100000BA030810B51C4B1C4A1B681268934236
:1081200005D91B480C21BDE8104008F0D7BB194AFF
:10813000194C11681360194A194852F82320C91ABA
:1081400018BF01219047237A73B12BF05BFB636862
:10815000C01A40F2DB53984209D9002121726160B4
:108160000F48242230F05AFF0D480C21DBE74FF472
:108170009673B0FBF3F203FB120164294FF0FF3159
:1081800088BF0021C9B2EBE744020020842500200B
:108190005C2500208024002010250020E401002020
:1081A000592400202DE9F04F2DED028B95B002905F
:1081B00009B30146A44A03462431002414705470C4
:1081C0009470033303F8034C03F8024C03F8014C9A
:1081D000994202F10302F1D19C4B00221A600DF08A
:1081E000F9FB00234FF47A72FDF74AF8984BC3E984
:1081F0000001984B1C60DFF85CA2DFF86092DAF8AF
:10820000003009EB8302013309EB830351681679CF
:10821000547992F806809A785B780A911343334335
:1082200000F0A7810DF0D6FB00234FF47A72FDF722
:1082300027F8864BDAF800E093ED008A844BDFEDF7
:10824000866A0791D3E90057CDE9040109EB8E0056
:108250004FF00009F0EE487ACDF80490B3EE096AC9
:1082600006EB8603DA0012EB050B47EBE37303938F
:10827000E30003F038034FEAD40C43EA581340F20A
:10828000031121244FF0170A13FB0143069208F053
:108290001F0140F20F221CFB02AC11FB02A1049A49
:1082A0009DF82BA0C3F3871393450093039A079B74
:1082B00072EB0308CCF3871CC1F387110AF00F049B
:1082C00079D3B9F1000F05D06248C0F800E06048EA
:1082D000C0E90057019B23B15C48B0EE678AC0ED4E
:1082E000007ADFF864B1009B8DF825C00BAE8DF8E5
:1082F00026308DF827103046DE464FF000089EF8F5
:10830000009080F8009008F101089EF8019080F834
:108310000190B8F10C0F9EF8029080F802900EF1D7
:10832000030E00F10300EAD11AF0100F00F02681CD
:10833000049B581B059B63EB0701FCF753FB80462E
:1083400006988946FCF71AFB02460B46404649460A
:10835000FCF7A8FCFCF736FEF7EE007A06EE900A72
:10836000002C7DD09DF82B30374903F00F0303EB31
:1083700043030BAA37EEE67A19440DF125041A449B
:10838000002011F8013B06EE103A14F8013B07EE0D
:10839000903AF8EEE77AB8EEC66A67EEA67A013050
:1083A000E7EE067A0328FCEEE77A17EE903A02F839
:1083B000013BE6D178E0002C39D1234A009B82F8BA
:1083C00000C001340C2C5370917002F10302F5D1FE
:1083D000BAF11F0F18D907EE106AB8EEC77A9DF8E8
:1083E0002B3027EE267A5B0987EE065A4FF47A7215
:1083F00013FB02F307EE103AB8EEC77A0123C5EE7D
:10840000075A019377EEA57A067A8368447A90F842
:108410000A800A930EF1010E1EB958EA040300F017
:10842000CB80039F04305D464FF0010918E7064DED
:10843000009B0AF00F0202EB4202AC1805F802C0E2
:108440006370A170C4E700BF202500201C25002018
:10845000482500205025002000007A448C2500206B
:1084600037EEE67A0BEB040C0DF1250031190022F2
:108470001CF8013B06EE103A10F8013B07EE903A6B
:10848000F8EEE77AB8EEC66A67EEA67A0132E7EE52
:10849000067A032AFCEEE77A17EE903A01F8013BE0
:1084A000E6D10334242CDDD1BAF11F0F17D9049B78
:1084B000581B059B63EB0701FCF79CFE9DF82B30D6
:1084C0004FF47A725B0913FB02F307EE903A06EE63
:1084D000900AF8EEE77A86EEA77A38EE078AF2EE8F
:1084E000087A28EE278AB7EE007AFDEEC87A0C20CB
:1084F00017EE906AF8EEE77A96FBF0F338EE678AAB
:1085000000FB136637EE487A00240BAF254673193B
:10851000013493FBF0F200FB1233029AB4FBF0F14A
:1085200003EB430300FB1141134401EB410103F151
:10853000FF3C07EB010E023305EB4505AEEB0102F4
:10854000525D06EE902A1EF8012B07EE902AF8EEF7
:10855000E77AF8EEE66A67EE277AE6EE887AFCEECE
:10856000E77A17EE902A0CF8012F6345E6D10C2C20
:10857000CCD115B0BDEC028BBDE8F08F54B90134FD
:10858000009B86F800C00C2C7370B17006F10306D6
:10859000F5D189E79DF82B2002F00F0202EB420291
:1085A00002F150030DEB0302009B02F824CC02F809
:1085B000233C02F8221C77E7074B039AC3F800E03C
:1085C000064BC3F800B05A60019B002BD1D0044B7E
:1085D000C3ED007ACDE700BF5025002048250020DC
:1085E0001C25002020F0F6B873B5134E34780CBB70
:1085F00020F0C6F80323114900934FF496722346E6
:108600000F4801942AF076FF0E4B01930E4B009316
:1086100001222346C8210D482CF0B6F905462BF05F
:10862000F1F8234602460094012128462CF0F0F987
:108630000123337002B070BDB81E00200ABA0308CF
:10864000A1880208D0250020E58500080DBA03089E
:1086500008B5044B1B6802215B689847024B186001
:1086600008BD00BF980200201C29002008B5044B5B
:108670001B6801215B689847024B186008BD00BF6A
:10868000980200201C29002008B5044B1B68032118
:108690005B689847024B186008BD00BF9802002035
:1086A0001C29002008B5044B1B6804215B6898470F
:1086B000024B186008BD00BF980200201C29002052
:1086C00010B5044C23781BB90349044826F0D4FDA7
:1086D000207810BDB91E002016BA0308B5CA0108DB
:1086E00008462BF0F5B9000070B586B0FCF7F8FE2F
:1086F0000B2102200FF0CCFC01244FF4006304A8EE
:108700000493ADF814308DF816400FF075F93F4B17
:108710003F4E18782146FCF771FE3E4B1D782146EE
:108720002846FCF76BFE3C4B00211878FCF766FEF0
:1087300000212846FCF790FE0A202BF0C9F92146BB
:108740002846FCF789FE0A202BF0C2F93349344849
:108750002CF056FD32482CF0B5FF054638B1002309
:1087600030493148337026F087FD06B070BD2C4883
:108770002CF0B2FD00220023CDE902232848DDE9D8
:1087800002232DF0A1FE294925482DF095FE284908
:1087900023482DF093FE274921482DF091FE2649CC
:1087A0001F482DF08FFE1E482DF02DF81C482DF08F
:1087B0009BFA22491A482DF07BFA194802212DF024
:1087C000EBF8174809212DF0EFF8154821462DF058
:1087D00037F842F2107112482CF0A4FE10482DF028
:1087E000F3FD174818F0B8FA20462AF04CF9154B5B
:1087F00015491860154B01930323009314482B4629
:108800004FF4E1722AF076FE3470AEE70F98030859
:10881000B91E002010980308119803084802002090
:10882000282900203DBA0308B5CA0108518600086E
:108830006D86000889860008A5860008D41F0408F4
:108840003CFB03088829002060BA03088C2900201B
:108850009D8900082DE9F8431E46164BDDF820904F
:108860001888154D14460F46FCF74AFF134B93F832
:10887000008000214046FCF7EFFD2246394628469D
:10888000FBF70EFE4A4631462819FBF709FE0C4A53
:10889000294604EB0900FCF7BFFE01214046FCF726
:1088A000DBFDFCF73DFF074A936801339360BDE8A9
:1088B000F88300BF5C020020182800200F980308EE
:1088C000542700207C0200202DE9F8431D46194B57
:1088D000089E1888184F14468846FCF711FF174B5E
:1088E00093F8009000214846FCF7B6FD4146224629
:1088F000DFF850803846FBF7D3FD324600213819A7
:1089000030F08CFB42463946A019FCF785FE324612
:1089100008EB04012846FBF7C3FD01214846FCF79C
:108920009BFDFCF7FDFE064A936801339360BDE8AA
:10893000F88300BF5C020020182800200F9803086D
:10894000600200205427002010B5094B094CD87054
:10895000094B53F83030236008481B689847236858
:1089600006485B6800219847054B1860012010BD40
:10897000BC020020980200209C0200202829002030
:108980001C29002019B9044B28221A80704701299C
:10899000FCD1014B0822F8E75C02002080B50022E0
:1089A00020210A2029F062FF494B4A4C186000231D
:1089B000E3701DF075F9484E484F30684FF0FF31B5
:1089C0002AF0D6F994F80280B8F1000F59D12AF0B4
:1089D00019FF6379054663B194F80490B9F1000F6B
:1089E0002DD000F57A750220A560FFF7ADFF84F861
:1089F00004800023DFF8008130681A46194629F008
:108A00006DFFD8F80020012100202BF07FFC0546E7
:108A1000002849D0324D30684FF0FF312AF0A8F9D4
:108A200030482DF0F8FC002330681A46194629F02A
:108A300055FF2878FCF71EFD0028ECD1BDE7A368A0
:108A40009842D6D9284B1B689B689847E37848B171
:108A500007EBC30325495A6884F80590244826F09B
:108A60000BFCC6E7581CC0B2032894BF98460120EF
:108A700005F57A75B8F1020FA560BAD8FFF764FF63
:108A8000B7E740F20113A380E3784345B1D008F182
:108A9000FF33022BADD84046FFF756FFE378154968
:108AA00007EBC3035A68D9E730684FF0FF312AF06B
:108AB0005FF90D4B0B481B6829465B6898472B46AE
:108AC000C8F800002A463068294629F007FF74E7F5
:108AD00020290020BC020020882900209C020020C0
:108AE00011980308282900209802002064BA03087E
:108AF000B5CA010886BA03081C290020F8B50D4B39
:108B00001C7805460E4694B10B4F4FF0FF31386884
:108B10002AF02EF9094B1B683146DB682846984736
:108B2000002304461A463868194629F0D7FE204625
:108B3000F8BD00BFB91E002088290020980200203F
:108B4000F8B50D4B1C7805460E4694B10B4F4FF00F
:108B5000FF3138682AF00CF9094B1B6831461B6954
:108B600028469847002304461A463868194629F0D3
:108B7000B5FE2046F8BD00BFB91E002088290020A0
:108B800098020020F8B50D4B1C7805460E4694B1AE
:108B90000B4F4FF0FF3138682AF0EAF8094B1B6899
:108BA00031465B6928469847002304461A463868D0
:108BB000194629F093FE2046F8BD00BFB91E0020DB
:108BC000882900209802002038B505460948007819
:108BD00078B1094CA01C62702570FBF761FC074856
:108BE00000231A460068214629F078FE431E5842A9
:108BF000584138BDB91E0020DC2800202029002063
:108C000008B5054B0146002218682AF011F8431EEA
:108C10005842584108BD00BF2029002007B50B4B22
:108C200000211868019101AA2BF04EFD019B4BB168
:108C30004FF0E0234FF08052C3F8042DBFF34F8F65
:108C4000BFF36F8F03B05DF804FB00BF8C290020D9
:108C500070470000014B188880B27047BC020020AA
:108C6000014B1880704700BFBC020020014B1878F0
:108C7000704700BFFC2A0020014B1879704700BFE5
:108C8000782B0020014B1878704700BFFD2A002088
:108C900070B50D4604462AF0B5FD2A460346214626
:108CA0000248BDE8704028F069BC00BF1091001078
:108CB00070B50D4604462AF0A5FD2A460346214616
:108CC0000248BDE8704028F059BC00BF1091001068
:108CD00070B50A4B0A4C1D68002201461046AB686D
:108CE00054F8046F9E42BCBF0A54431C02F10102B7
:108CF000B8BFD8B2082AF2D170BD00BFE802002088
:108D0000442C00200A460146014828F026BC00BF3A
:108D1000109100100A460146014828F01EBC00BF11
:108D20001091001003460020185401300828FBD190
:108D30007047000037B504460D462AF063FD214612
:108D400002466B46054828F0F5FB044618B1294653
:108D5000684628F03EFC204603B030BD109100105C
:108D600037B504460D462AF04DFD214602466B46B6
:108D7000054828F0DFFB044618B12946684628F06C
:108D800028FC204603B030BD1091001010B5072814
:108D90009FBF064B1B6803EB001058300C469BBF6F
:108DA0000FC884E80F000020012010BDE802002059
:108DB00038B505462AF026FD9FED0D0B0E4A0146FB
:108DC00002230E4828F01CF90D4B00241C700D4B9B
:108DD00020461C70FFF744FF42F2107128462CF029
:108DE000A1FB28462DF0F0FA074B1C7038BD00BFE0
:108DF0000000000030C12D42698E00081091001063
:108E0000752B0020542B0020FC2A002000000000BD
:108E100010B504462AF0F6FC0F4A01239FED0C0B17
:108E200001460E4828F0ECF84CF2503120462CF068
:108E300079FB20462DF0C8FA094B0A4A1A60012234
:108E400083F8252000221A7110BD00BFAFF3008007
:108E50000000000030C12D42BD8E000810910010AE
:108E6000782B00209A99193E70B5124B8CB01B6874
:108E700083620546002306468DF800300FCD01AC15
:108E80000FC40FCD0FC495E8070084E807006846BB
:108E900024F046FE96F8203096F82120013303F0A6
:108EA0000703934201BF044A02EB8303726A1A600C
:108EB0000CB070BDE0020020302B002030B50C4B10
:108EC00093F825208DB0044682B11B68836200238D
:108ED0008DF800300FCC01AD0FC50FCC0FC594E855
:108EE000070085E80700684624F01AFE0DB030BD83
:108EF000782B0020000000002DE9F04F994AD2F8AD
:108F00008834B3B00133C2F8883407462CF07CFDB6
:108F10000DF1330402460646214638462CF092FDF8
:108F20009DF84830222B40F008818F4B109C93F81D
:108F30000080E4B2B8F1000F53D0DFF84C9299F8FA
:108F40000030A34240F0F680884D38462CF075FB87
:108F50002B7899F8012023F07F0343F041032B7015
:108F60006B7803F0030363F023036B7009F10201D4
:108F7000F02305F116006B75FBF792FA7C4B00228B
:108F80001B68AA73EA732A746A74AA7499F8002099
:108F90006FF043014FF0FF3C297129756FF03000ED
:108FA00003EBC20185F80DC0E870E87453F8322075
:108FB0004B68C5F809303846C5F805202CF0ABFDE4
:108FC00038462CF091FE99F8012029461632384691
:108FD0002CF0F9FC384601212CF02AFC38462CF004
:108FE000E4FB0022002308A93846CDE908232CF031
:108FF0004BFE072C00F29A802AF004FC0246DDE9C1
:109000000801A31CCDE9040132A901EB83035948EF
:1090100053F87FACDFF868B104F1C8036B44214614
:1090200013F87F3C03F07F0306930AAB28F00AF89D
:109030000AA828F0B9FA4FF0000907464D46E9B2F0
:109040008F4234D032AAAB1C02EB830353F87F2C3F
:109050006AB105F1C8036B440AA813F87F3C079175
:1090600003F07F030093002328F015FB079932AA31
:1090700005F1140302EB430333F87F2CBAB100234C
:109080000AA828F060FB9BF800305A1C02F0070287
:10909000BA420CD132AA143302EB430313F87F2CEB
:1090A00013F87E3C42EA0323334A22F81730013595
:1090B000082DC4D1DDE904230AA9CDE900232D48F8
:1090C0002E4D5246002328F07FF9069B02930AA8F2
:1090D000DDE90423CDE900A928F098FA0AA828F0D0
:1090E000A6FA51EC100BFBF76DFF05EB8405244B42
:1090F00028604E3E002E1C7015DD9DF88130F02B4F
:1091000011D11B4B10981B68119C0DF13302083BC9
:10911000002153F8086F5D68AC4208BFB0420FD021
:1091200001310829F5D1174B01221A70404633B09E
:10913000BDE8F08F4FF0000853E74FF00008F5E767
:109140009DF88230012BEED1936D01EE103A536DF4
:1091500000EE903A136D0AA800EE103A28F04CFA8F
:10916000E1E700BF10C10010542B0020902900201F
:10917000E402002010910010FE2A0020102B002095
:10918000752B0020FC2A0020552B00202DE9F04FE4
:10919000564FD7F88834B3B001338046C7F88834C7
:1091A0002CF032FC0DF133060246314605464046AE
:1091B0002CF048FC0023002208A94046D6F80D40B8
:1091C000CDE908232CF060FD9DF84830302B5AD1B2
:1091D000DDE90823CDE90423DDF84A3006939DF844
:1091E000493003F07F0307932AF00CFBE1B20246FB
:1091F0000AABA7F5405027F025FF4FF00009C846FD
:109200000DF14F049DF84E205FFA88F39A423DD845
:10921000DDE9041212ABE41A0023CDE90012CDE916
:109220000233069A32480AA927F022FF079B0293CD
:10923000069B153DCDE900390AA8DDE904232D1B65
:1092400028F0E4F9002D1BDD04F1C8036B4413F88A
:10925000802CF02A14D113F87F3C012B10D1163446
:1092600026440AA8D6F8093001EE103AD6F805309F
:1092700000EE903AD6F8013000EE103A28F0BCF932
:109280001C4B01221A7133B0BDE8F08FD4F80220D4
:1092900094F800A042B1637803F07F030093514635
:1092A00000230AA828F0F7F994F90130002B1ADA04
:1092B000B4F806B01FFA8BF28AB1002351460AA80F
:1092C00028F041FA0AA828F06FF997F82835834268
:1092D00005D197F82935534508BFA7F84CB5083490
:1092E00008F101088EE70634FAE700BF10C100104C
:1092F00010910010782B00202DE9F04F0022C1B012
:109300000023CDE90C2305462CF07EFB0646002801
:1093100000F036810DF16B041522002120462FF05C
:109320007DFE3246214628462CF08CFBBE4AD4F8FE
:1093300005C0D2F80080D4F80930D8E9041293426D
:1093400008BF8C450DD028462CF0D4FB28462CF0C5
:10935000CBFC28462CF010FA4FF0FF3041B0BDE8AE
:10936000F08FDFF8F492D4F80D10D4F81100C9F89A
:1093700011309DF88030C9F80510022BC9F809009A
:10938000C9F80DC000F0FE80042BE5D1A74B9DF875
:1093900081201B789A4240F0F380A54BDDF88200D3
:1093A0009DF8862018601A71A24B9DF88B20DDF87D
:1093B0008700DFF8A8A21A7118609DF890308AF82B
:1093C00004309D4B23981D689C4BCAF80000186818
:1093D000DFF88C92DFF88C82281AFBF7BFFADDF8F1
:1093E0008760CDE90001DDF88200301AFBF7B6FA9C
:1093F000CDE902012398801BFBF7B0FACDE9040107
:10940000D9F800008E4E401BFBF7A8FADDE90423D3
:10941000CDE90601DDE90001FBF71AFBDDE90623D2
:10942000CDE90801DDE90201FBF712FB02460B461C
:10943000DDE90801FBF754F9DDE90423CDE9080172
:10944000DDE90001FBF74EF9DDE90223FBF74AF9FC
:10945000DDE90623FBF746F998F8005002460B4673
:10946000DDE90801FBF71EFC6BA3D3E90023FBF742
:1094700019FC6BA3D3E90023FBF7EAFAFBF7A2FD83
:1094800006EB850B2021CBF80000D4F82E206D4C84
:10949000CBF820204FF0840B0BFB05400BAAD0F833
:1094A0008030013303F01F03C0F8803028F07CFCCB
:1094B00098F800000AAA0BFB0040202128F05CFC71
:1094C00098F80030DDED0A7A0BFB034B03EB4312F7
:1094D000DBF880100A4404EB82045B4A012111701E
:1094E00006EB8306504A96ED007A126884ED007A06
:1094F00077EEC77A92F8D810F0EEE77A19B902EB56
:109500000311896DF9B1DDED0B6AB1EE006A66EE0B
:10951000866AF4EEE76AF1EE10FA14DD02EB03124C
:109520000324D06D116E0F90526E8DF848300EA846
:109530004FF07A538DF83840109111928DED137AD7
:10954000149324F0EDFA384B1B6893F8D930A3B18B
:1095500098F800308BB9DAF800303C4803F06042EC
:10956000D21AD9E9003461EB01019B1841EB0401E7
:10957000C0E90031364B01221A70364B01221A70B5
:109580000020EBE6294B9DF881201B789A42F7D109
:10959000153E032E10DD9DF88230F02B0CD108F122
:1095A0001003002653F8082F5F68B84208BF9142A5
:1095B0005AD00136082EF5D10CAC032389F81530AA
:1095C00021469DF8813089F8163028462CF05CFB46
:1095D000154B1A68D2E900310C9A5B0843EAC17353
:1095E000D21A0D9B63EB5103CDE90C2394E80300E1
:1095F000114B83E8030028462CF08DFA17222846E9
:1096000015492CF0E0F9284601212CF011F92846E3
:109610002CF0CBF8A0E600BF0000000030C12D42C6
:109620000000004A78DEB141E8020020B42B00209F
:10963000D82B0020D02B0020C82B0020E02B0020AE
:10964000082C002030020010FD2A0020A82B00204A
:10965000B02B0020B22B0020AC230020B82B002020
:10966000C02B0020B32B00209DF88330012BA3D109
:109670002AF0C8F8084B08EB06181B68C8F8580011
:1096800003EB0613D4F81920DA65D4F81D201A6606
:10969000D4F821205A668FE7E802002070B504460E
:1096A000042934D8DFE801F02A03222A2A00FFF730
:1096B00023FC1A4E1A4D40B1002333701948FFF7AE
:1096C0009FFA002330702B6010E020462CF012FA35
:1096D00020462CF009FB20462CF04EF82B68013375
:1096E000272B2B60E8DC3378002BE7D02AF08AF8B0
:1096F0000020FFF7B5FA4FF0FF3070BD2CF0FAF9FB
:1097000020462CF0F1FA20462CF036F8EEE7064918
:10971000064840F20F1225F01DF9E7E7542B002010
:10972000502B0020552B0020A1BA0308DCCB0308E6
:109730000129F8B5054619D002D90239022918D8ED
:109740002AF060F801462E4827F086FE2D48FFF7E4
:1097500057FAA8B928462CF0CDF928462CF0C4FABF
:1097600028462CF009F84FF4FA70F8BDFFF70EFD0B
:10977000E6E7254925484FF4187225F0EBF8DFE7B6
:10978000234C244E28462BF058FF2378B27923F03F
:109790007F0343F041032370637803F0030363F016
:1097A00023036370F11DF02304F116006375FAF7CB
:1097B00077FE7379C4F805306FF030000022164B45
:1097C000E0706FF04301E0744FF0FF3728462171DD
:1097D000A273E27322746274A2742175C4F8093012
:1097E00067732CF098F928462CF07EFAB279284657
:1097F000163221462CF0E7F828462BF0D6FFB2E7C8
:1098000090C500107D2B0020C7BA0308DCCB0308ED
:10981000252A0020782B00200000CFBC38B52E4B25
:109820001C680546D4F8DC00002805DA25F0D4FAD7
:1098300000F00100C4F8DC00D4E90421121841EB67
:10984000E071C4E904212548002195222FF0E6FBB0
:10985000224A412313706FF0230353706FF03003DB
:10986000D3706FF0430313711D4B0024C3E9004410
:109870001C4BC3E900441C4BC3E900441B4BC3E928
:1098800000441B4BC3E900441A4BC3E900441A4B84
:109890001C701A4B20461C70FFF7E2F9184B194850
:1098A0001C70194B202221461C702FF0B7FB202280
:1098B000214616482FF0B2FB2022214614482FF0F3
:1098C000ADFB4FF47A7128462BF02CFE28462CF085
:1098D0007BFD104B1C7038BDE8020020AC2300203B
:1098E000E02B0020D82B0020D02B0020C82B0020FC
:1098F000C02B0020B82B0020B42B0020B32B00205D
:10990000B22B0020082C0020B02B0020282C002097
:10991000482C0020FD2A00202DE9F04FDFF8348389
:10992000D8F8003087B004460D461BB929F06AFF0D
:10993000C8F80000042D00F26281DFE815F0320063
:1099400005000B0067016701204607B0BDE8F04F36
:10995000FFF7D2BC04AD294620462CF07EF8AC4B74
:109960001A68D2E90031049A5B0843EAC173D2183D
:10997000059B43EB5103CDE90423A64B5B7D012BF3
:1099800007D0032B0BD0A44B1878013807B0BDE8E3
:10999000F08FA24B95E8030083E80300F3E7A04BA8
:1099A000F8E7FFF757F99F4E9F4FA04A39780546D1
:1099B00030780123834000F1100C002940F0A4808E
:1099C00095490978002940F09F80DFF844E252F879
:1099D0002C10DEF800E09FED960ADEF808E01BB2DE
:1099E00071452DB2B7BF01319D432B4342F82C1076
:1099F000ACBFADB29DB214F017FF32788D498B5CCD
:109A000001338B542846FFF72BF929F0FBFED8F8D9
:109A1000003003F57A73984200F28480DFF838B2A0
:109A20007C4DDFF8ECA15846FFF7EAF805F10D0987
:109A3000794B05F10508002840F0A7801870DAF886
:109A40000030387093F8D9305BB17B4B1B7873B121
:109A50007A49D1E9003213F1005342F10002C1E921
:109A6000003233780133DBB2072B337001D9002386
:109A7000337020462BF0E1FD714A01236B7513789A
:109A80000133DBB21370AB75DAF80030D3E904129E
:109A9000C9F804203278C5F80D10033203EBC20177
:109AA00053F83230C5F8053020464B68C8F804300A
:109AB0002CF031F820462CF017F917225549204692
:109AC0002BF081FFDAF8003093F8D920D2B15A4A4E
:109AD0001278BAB1594AD3F8DC00D2E90032042135
:109AE000C0FB01326FF3080303F500730592049382
:109AF00006AA12E9030002AB83E8030020460CCB60
:109B00002BF0A7FE012171E01D43002342F82C3009
